{
  "contractName": "FundraiserFactory",
  "abi": [
    {
      "anonymous": false,
      "inputs": [
        {
          "indexed": true,
          "internalType": "contract Fundraiser",
          "name": "fundraiser",
          "type": "address"
        },
        {
          "indexed": true,
          "internalType": "address",
          "name": "owner",
          "type": "address"
        }
      ],
      "name": "FundraiserCreated",
      "type": "event"
    },
    {
      "inputs": [],
      "name": "fundraisersCount",
      "outputs": [
        {
          "internalType": "uint256",
          "name": "",
          "type": "uint256"
        }
      ],
      "stateMutability": "view",
      "type": "function",
      "constant": true
    },
    {
      "inputs": [
        {
          "internalType": "string",
          "name": "name",
          "type": "string"
        },
        {
          "internalType": "string",
          "name": "url",
          "type": "string"
        },
        {
          "internalType": "string",
          "name": "imageURL",
          "type": "string"
        },
        {
          "internalType": "string",
          "name": "description",
          "type": "string"
        },
        {
          "internalType": "address payable",
          "name": "beneficiary",
          "type": "address"
        }
      ],
      "name": "createFundraiser",
      "outputs": [],
      "stateMutability": "nonpayable",
      "type": "function"
    },
    {
      "inputs": [
        {
          "internalType": "uint256",
          "name": "limit",
          "type": "uint256"
        },
        {
          "internalType": "uint256",
          "name": "offset",
          "type": "uint256"
        }
      ],
      "name": "fundraisers",
      "outputs": [
        {
          "internalType": "contract Fundraiser[]",
          "name": "coll",
          "type": "address[]"
        }
      ],
      "stateMutability": "view",
      "type": "function",
      "constant": true
    }
  ],
  "bytecode": "0x608060405234801561001057600080fd5b506126fe806100206000396000f3fe60806040523480156200001157600080fd5b5060043610620000465760003560e01c806311d752ad146200004b578063704914f8146200006b5780639d3b435514620000a1575b600080fd5b620000696004803603810190620000639190620004a1565b620000c3565b005b62000089600480360381019062000083919062000587565b620001cf565b60405162000098919062000713565b60405180910390f35b620000ab620003e7565b604051620000ba9190620007e2565b60405180910390f35b6000858585858533604051620000d990620003f3565b620000ea9695949392919062000737565b604051809103906000f08015801562000107573d6000803e3d6000fd5b5090506000819080600181540180825580915050600190039060005260206000200160009091909190916101000a81548173ffffffffffffffffffffffffffffffffffffffff021916908373ffffffffffffffffffffffffffffffffffffffff1602179055503373ffffffffffffffffffffffffffffffffffffffff168173ffffffffffffffffffffffffffffffffffffffff167fa2398daac0c8053a1e3c0280916c2ec6bc884f0959c27e639a4db829b7eabfb160405160405180910390a3505050505050565b6060620001db620003e7565b82111562000220576040517f08c379a00000000000000000000000000000000000000000000000000000000081526004016200021790620007c0565b60405180910390fd5b6000826200022d620003e7565b62000239919062000918565b90508381106200024a57836200024c565b805b9050601481106200025f57601462000261565b805b90508067ffffffffffffffff811115620002a4577f4e487b7100000000000000000000000000000000000000000000000000000000600052604160045260246000fd5b604051908082528060200260200182016040528015620002d35781602001602082028036833780820191505090505b50915060005b81811015620003df5760008185620002f29190620008bb565b815481106200032a577f4e487b7100000000000000000000000000000000000000000000000000000000600052603260045260246000fd5b9060005260206000200160009054906101000a900473ffffffffffffffffffffffffffffffffffffffff168382815181106200038f577f4e487b7100000000000000000000000000000000000000000000000000000000600052603260045260246000fd5b602002602001019073ffffffffffffffffffffffffffffffffffffffff16908173ffffffffffffffffffffffffffffffffffffffff16815250508080620003d69062000a12565b915050620002d9565b505092915050565b60008080549050905090565b611bc58062000b0483390190565b600062000418620004128462000833565b620007ff565b9050828152602081018484840111156200043157600080fd5b6200043e848285620009cd565b509392505050565b600081359050620004578162000acf565b92915050565b600082601f8301126200046f57600080fd5b81356200048184826020860162000401565b91505092915050565b6000813590506200049b8162000ae9565b92915050565b600080600080600060a08688031215620004ba57600080fd5b600086013567ffffffffffffffff811115620004d557600080fd5b620004e3888289016200045d565b955050602086013567ffffffffffffffff8111156200050157600080fd5b6200050f888289016200045d565b945050604086013567ffffffffffffffff8111156200052d57600080fd5b6200053b888289016200045d565b935050606086013567ffffffffffffffff8111156200055957600080fd5b62000567888289016200045d565b92505060806200057a8882890162000446565b9150509295509295909350565b600080604083850312156200059b57600080fd5b6000620005ab858286016200048a565b9250506020620005be858286016200048a565b9150509250929050565b6000620005d683836200066e565b60208301905092915050565b620005ed8162000967565b82525050565b620005fe8162000953565b82525050565b6000620006118262000876565b6200061d818562000899565b93506200062a8362000866565b8060005b8381101562000661578151620006458882620005c8565b975062000652836200088c565b9250506001810190506200062e565b5085935050505092915050565b6200067981620009a5565b82525050565b60006200068c8262000881565b620006988185620008aa565b9350620006aa818560208601620009dc565b620006b58162000abe565b840191505092915050565b6000620006cf601483620008aa565b91507f6f6666736574206f7574206f6620626f756e64730000000000000000000000006000830152602082019050919050565b6200070d816200099b565b82525050565b600060208201905081810360008301526200072f818462000604565b905092915050565b600060c08201905081810360008301526200075381896200067f565b905081810360208301526200076981886200067f565b905081810360408301526200077f81876200067f565b905081810360608301526200079581866200067f565b9050620007a66080830185620005e2565b620007b560a0830184620005f3565b979650505050505050565b60006020820190508181036000830152620007db81620006c0565b9050919050565b6000602082019050620007f9600083018462000702565b92915050565b6000604051905081810181811067ffffffffffffffff8211171562000829576200082862000a8f565b5b8060405250919050565b600067ffffffffffffffff82111562000851576200085062000a8f565b5b601f19601f8301169050602081019050919050565b6000819050602082019050919050565b600081519050919050565b600081519050919050565b6000602082019050919050565b600082825260208201905092915050565b600082825260208201905092915050565b6000620008c8826200099b565b9150620008d5836200099b565b9250827fffffffffffffffffffffffffffffffffffffffffffffffffffffffffffffffff038211156200090d576200090c62000a60565b5b828201905092915050565b600062000925826200099b565b915062000932836200099b565b92508282101562000948576200094762000a60565b5b828203905092915050565b600062000960826200097b565b9050919050565b600062000974826200097b565b9050919050565b600073ffffffffffffffffffffffffffffffffffffffff82169050919050565b6000819050919050565b6000620009b282620009b9565b9050919050565b6000620009c6826200097b565b9050919050565b82818337600083830152505050565b60005b83811015620009fc578082015181840152602081019050620009df565b8381111562000a0c576000848401525b50505050565b600062000a1f826200099b565b91507fffffffffffffffffffffffffffffffffffffffffffffffffffffffffffffffff82141562000a555762000a5462000a60565b5b600182019050919050565b7f4e487b7100000000000000000000000000000000000000000000000000000000600052601160045260246000fd5b7f4e487b7100000000000000000000000000000000000000000000000000000000600052604160045260246000fd5b6000601f19601f8301169050919050565b62000ada8162000967565b811462000ae657600080fd5b50565b62000af4816200099b565b811462000b0057600080fd5b5056fe60806040523480156200001157600080fd5b5060405162001bc538038062001bc583398181016040528101906200003791906200047c565b620000576200004b6200012160201b60201c565b6200012960201b60201c565b85600290805190602001906200006f9291906200032c565b508460039080519060200190620000889291906200032c565b508360049080519060200190620000a19291906200032c565b508260059080519060200190620000ba9291906200032c565b5081600660006101000a81548173ffffffffffffffffffffffffffffffffffffffff021916908373ffffffffffffffffffffffffffffffffffffffff1602179055506200010d81620001ed60201b60201c565b600060088190555050505050505062000822565b600033905090565b60008060009054906101000a900473ffffffffffffffffffffffffffffffffffffffff169050816000806101000a81548173ffffffffffffffffffffffffffffffffffffffff021916908373ffffffffffffffffffffffffffffffffffffffff1602179055508173ffffffffffffffffffffffffffffffffffffffff168173ffffffffffffffffffffffffffffffffffffffff167f8be0079c531659141344cd1fd0a4f28419497f9722a3daafe3b4186f6b6457e060405160405180910390a35050565b620001fd6200012160201b60201c565b73ffffffffffffffffffffffffffffffffffffffff16620002236200030360201b60201c565b73ffffffffffffffffffffffffffffffffffffffff16146200027c576040517f08c379a0000000000000000000000000000000000000000000000000000000008152600401620002739062000642565b60405180910390fd5b600073ffffffffffffffffffffffffffffffffffffffff168173ffffffffffffffffffffffffffffffffffffffff161415620002ef576040517f08c379a0000000000000000000000000000000000000000000000000000000008152600401620002e69062000620565b60405180910390fd5b62000300816200012960201b60201c565b50565b60008060009054906101000a900473ffffffffffffffffffffffffffffffffffffffff16905090565b8280546200033a906200075a565b90600052602060002090601f0160209004810192826200035e5760008555620003aa565b82601f106200037957805160ff1916838001178555620003aa565b82800160010185558215620003aa579182015b82811115620003a95782518255916020019190600101906200038c565b5b509050620003b99190620003bd565b5090565b5b80821115620003d8576000816000905550600101620003be565b5090565b6000620003f3620003ed8462000698565b62000664565b9050828152602081018484840111156200040c57600080fd5b6200041984828562000724565b509392505050565b6000815190506200043281620007ee565b92915050565b600081519050620004498162000808565b92915050565b600082601f8301126200046157600080fd5b815162000473848260208601620003dc565b91505092915050565b60008060008060008060c087890312156200049657600080fd5b600087015167ffffffffffffffff811115620004b157600080fd5b620004bf89828a016200044f565b965050602087015167ffffffffffffffff811115620004dd57600080fd5b620004eb89828a016200044f565b955050604087015167ffffffffffffffff8111156200050957600080fd5b6200051789828a016200044f565b945050606087015167ffffffffffffffff8111156200053557600080fd5b6200054389828a016200044f565b93505060806200055689828a0162000438565b92505060a06200056989828a0162000421565b9150509295509295509295565b600062000585602683620006cb565b91507f4f776e61626c653a206e6577206f776e657220697320746865207a65726f206160008301527f64647265737300000000000000000000000000000000000000000000000000006020830152604082019050919050565b6000620005ed602083620006cb565b91507f4f776e61626c653a2063616c6c6572206973206e6f7420746865206f776e65726000830152602082019050919050565b600060208201905081810360008301526200063b8162000576565b9050919050565b600060208201905081810360008301526200065d81620005de565b9050919050565b6000604051905081810181811067ffffffffffffffff821117156200068e576200068d620007bf565b5b8060405250919050565b600067ffffffffffffffff821115620006b657620006b5620007bf565b5b601f19601f8301169050602081019050919050565b600082825260208201905092915050565b6000620006e98262000704565b9050919050565b6000620006fd8262000704565b9050919050565b600073ffffffffffffffffffffffffffffffffffffffff82169050919050565b60005b838110156200074457808201518184015260208101905062000727565b8381111562000754576000848401525b50505050565b600060028204905060018216806200077357607f821691505b602082108114156200078a576200078962000790565b5b50919050565b7f4e487b7100000000000000000000000000000000000000000000000000000000600052602260045260246000fd5b7f4e487b7100000000000000000000000000000000000000000000000000000000600052604160045260246000fd5b620007f981620006dc565b81146200080557600080fd5b50565b6200081381620006f0565b81146200081f57600080fd5b50565b61139380620008326000396000f3fe6080604052600436106100f75760003560e01c80635600f04f1161008a578063b90497e011610059578063b90497e014610308578063de2ed89314610333578063ed88c68e1461035e578063f2fde38b14610368576100f8565b80635600f04f14610270578063715018a61461029b5780637284e416146102b25780638da5cb5b146102dd576100f8565b80631f522595116100c65780631f522595146101d8578063375b74c31461020357806338af3eed1461022e5780633ccfd60b14610259576100f8565b80630180b97c1461012d57806306fdde03146101585780631a57f7b4146101835780631c31f710146101af576100f8565b5b61010d3460085461039190919063ffffffff16565b6008819055506009600081548092919061012690611277565b9190505550005b34801561013957600080fd5b506101426103a7565b60405161014f91906110fe565b60405180910390f35b34801561016457600080fd5b5061016d6103f1565b60405161017a919061109c565b60405180910390f35b34801561018f57600080fd5b5061019861047f565b6040516101a6929190611065565b60405180910390f35b3480156101bb57600080fd5b506101d660048036038101906101d19190610e75565b6106b2565b005b3480156101e457600080fd5b506101ed610772565b6040516101fa91906110fe565b60405180910390f35b34801561020f57600080fd5b50610218610778565b604051610225919061102f565b60405180910390f35b34801561023a57600080fd5b5061024361079e565b604051610250919061104a565b60405180910390f35b34801561026557600080fd5b5061026e6107c4565b005b34801561027c57600080fd5b506102856108e8565b604051610292919061109c565b60405180910390f35b3480156102a757600080fd5b506102b0610976565b005b3480156102be57600080fd5b506102c76109fe565b6040516102d4919061109c565b60405180910390f35b3480156102e957600080fd5b506102f2610a8c565b6040516102ff919061102f565b60405180910390f35b34801561031457600080fd5b5061031d610ab5565b60405161032a919061109c565b60405180910390f35b34801561033f57600080fd5b50610348610b43565b60405161035591906110fe565b60405180910390f35b610366610b49565b005b34801561037457600080fd5b5061038f600480360381019061038a9190610e4c565b610c5e565b005b6000818361039f919061116e565b905092915050565b6000600160003373ffffffffffffffffffffffffffffffffffffffff1673ffffffffffffffffffffffffffffffffffffffff16815260200190815260200160002080549050905090565b600280546103fe90611245565b80601f016020809104026020016040519081016040528092919081815260200182805461042a90611245565b80156104775780601f1061044c57610100808354040283529160200191610477565b820191906000526020600020905b81548152906001019060200180831161045a57829003601f168201915b505050505081565b606080600061048c6103a7565b90508067ffffffffffffffff8111156104ce577f4e487b7100000000000000000000000000000000000000000000000000000000600052604160045260246000fd5b6040519080825280602002602001820160405280156104fc5781602001602082028036833780820191505090505b5092508067ffffffffffffffff81111561053f577f4e487b7100000000000000000000000000000000000000000000000000000000600052604160045260246000fd5b60405190808252806020026020018201604052801561056d5781602001602082028036833780820191505090505b50915060005b818110156106ac576000600160003373ffffffffffffffffffffffffffffffffffffffff1673ffffffffffffffffffffffffffffffffffffffff16815260200190815260200160002082815481106105f4577f4e487b7100000000000000000000000000000000000000000000000000000000600052603260045260246000fd5b906000526020600020906002020190508060000154858381518110610642577f4e487b7100000000000000000000000000000000000000000000000000000000600052603260045260246000fd5b602002602001018181525050806001015484838151811061068c577f4e487b7100000000000000000000000000000000000000000000000000000000600052603260045260246000fd5b6020026020010181815250505080806106a490611277565b915050610573565b50509091565b6106ba610d56565b73ffffffffffffffffffffffffffffffffffffffff166106d8610a8c565b73ffffffffffffffffffffffffffffffffffffffff161461072e576040517f08c379a0000000000000000000000000000000000000000000000000000000008152600401610725906110de565b60405180910390fd5b80600660006101000a81548173ffffffffffffffffffffffffffffffffffffffff021916908373ffffffffffffffffffffffffffffffffffffffff16021790555050565b60095481565b600760009054906101000a900473ffffffffffffffffffffffffffffffffffffffff1681565b600660009054906101000a900473ffffffffffffffffffffffffffffffffffffffff1681565b6107cc610d56565b73ffffffffffffffffffffffffffffffffffffffff166107ea610a8c565b73ffffffffffffffffffffffffffffffffffffffff1614610840576040517f08c379a0000000000000000000000000000000000000000000000000000000008152600401610837906110de565b60405180910390fd5b6000479050600660009054906101000a900473ffffffffffffffffffffffffffffffffffffffff1673ffffffffffffffffffffffffffffffffffffffff166108fc829081150290604051600060405180830381858888f193505050501580156108ad573d6000803e3d6000fd5b507f5b6b431d4476a211bb7d41c20d1aab9ae2321deee0d20be3d9fc9b1093fa6e3d816040516108dd91906110fe565b60405180910390a150565b600380546108f590611245565b80601f016020809104026020016040519081016040528092919081815260200182805461092190611245565b801561096e5780601f106109435761010080835404028352916020019161096e565b820191906000526020600020905b81548152906001019060200180831161095157829003601f168201915b505050505081565b61097e610d56565b73ffffffffffffffffffffffffffffffffffffffff1661099c610a8c565b73ffffffffffffffffffffffffffffffffffffffff16146109f2576040517f08c379a00000000000000000000000000000000000000000000000000000000081526004016109e9906110de565b60405180910390fd5b6109fc6000610d5e565b565b60058054610a0b90611245565b80601f0160208091040260200160405190810160405280929190818152602001828054610a3790611245565b8015610a845780601f10610a5957610100808354040283529160200191610a84565b820191906000526020600020905b815481529060010190602001808311610a6757829003601f168201915b505050505081565b60008060009054906101000a900473ffffffffffffffffffffffffffffffffffffffff16905090565b60048054610ac290611245565b80601f0160208091040260200160405190810160405280929190818152602001828054610aee90611245565b8015610b3b5780601f10610b1057610100808354040283529160200191610b3b565b820191906000526020600020905b815481529060010190602001808311610b1e57829003601f168201915b505050505081565b60085481565b60006040518060400160405280348152602001428152509050600160003373ffffffffffffffffffffffffffffffffffffffff1673ffffffffffffffffffffffffffffffffffffffff1681526020019081526020016000208190806001815401808255809150506001900390600052602060002090600202016000909190919091506000820151816000015560208201518160010155505034600854610bef919061116e565b60088190555060096000815480929190610c0890611277565b91905055503373ffffffffffffffffffffffffffffffffffffffff167f264f630d9efa0d07053a31163641d9fcc0adafc9d9e76f1c37c2ce3a558d2c5234604051610c5391906110fe565b60405180910390a250565b610c66610d56565b73ffffffffffffffffffffffffffffffffffffffff16610c84610a8c565b73ffffffffffffffffffffffffffffffffffffffff1614610cda576040517f08c379a0000000000000000000000000000000000000000000000000000000008152600401610cd1906110de565b60405180910390fd5b600073ffffffffffffffffffffffffffffffffffffffff168173ffffffffffffffffffffffffffffffffffffffff161415610d4a576040517f08c379a0000000000000000000000000000000000000000000000000000000008152600401610d41906110be565b60405180910390fd5b610d5381610d5e565b50565b600033905090565b60008060009054906101000a900473ffffffffffffffffffffffffffffffffffffffff169050816000806101000a81548173ffffffffffffffffffffffffffffffffffffffff021916908373ffffffffffffffffffffffffffffffffffffffff1602179055508173ffffffffffffffffffffffffffffffffffffffff168173ffffffffffffffffffffffffffffffffffffffff167f8be0079c531659141344cd1fd0a4f28419497f9722a3daafe3b4186f6b6457e060405160405180910390a35050565b600081359050610e318161132f565b92915050565b600081359050610e4681611346565b92915050565b600060208284031215610e5e57600080fd5b6000610e6c84828501610e22565b91505092915050565b600060208284031215610e8757600080fd5b6000610e9584828501610e37565b91505092915050565b6000610eaa8383611011565b60208301905092915050565b610ebf816111d6565b82525050565b610ece816111c4565b82525050565b6000610edf82611129565b610ee9818561114c565b9350610ef483611119565b8060005b83811015610f25578151610f0c8882610e9e565b9750610f178361113f565b925050600181019050610ef8565b5085935050505092915050565b6000610f3d82611134565b610f47818561115d565b9350610f57818560208601611212565b610f608161131e565b840191505092915050565b6000610f7860268361115d565b91507f4f776e61626c653a206e6577206f776e657220697320746865207a65726f206160008301527f64647265737300000000000000000000000000000000000000000000000000006020830152604082019050919050565b6000610fde60208361115d565b91507f4f776e61626c653a2063616c6c6572206973206e6f7420746865206f776e65726000830152602082019050919050565b61101a81611208565b82525050565b61102981611208565b82525050565b60006020820190506110446000830184610ec5565b92915050565b600060208201905061105f6000830184610eb6565b92915050565b6000604082019050818103600083015261107f8185610ed4565b905081810360208301526110938184610ed4565b90509392505050565b600060208201905081810360008301526110b68184610f32565b905092915050565b600060208201905081810360008301526110d781610f6b565b9050919050565b600060208201905081810360008301526110f781610fd1565b9050919050565b60006020820190506111136000830184611020565b92915050565b6000819050602082019050919050565b600081519050919050565b600081519050919050565b6000602082019050919050565b600082825260208201905092915050565b600082825260208201905092915050565b600061117982611208565b915061118483611208565b9250827fffffffffffffffffffffffffffffffffffffffffffffffffffffffffffffffff038211156111b9576111b86112c0565b5b828201905092915050565b60006111cf826111e8565b9050919050565b60006111e1826111e8565b9050919050565b600073ffffffffffffffffffffffffffffffffffffffff82169050919050565b6000819050919050565b60005b83811015611230578082015181840152602081019050611215565b8381111561123f576000848401525b50505050565b6000600282049050600182168061125d57607f821691505b60208210811415611271576112706112ef565b5b50919050565b600061128282611208565b91507fffffffffffffffffffffffffffffffffffffffffffffffffffffffffffffffff8214156112b5576112b46112c0565b5b600182019050919050565b7f4e487b7100000000000000000000000000000000000000000000000000000000600052601160045260246000fd5b7f4e487b7100000000000000000000000000000000000000000000000000000000600052602260045260246000fd5b6000601f19601f8301169050919050565b611338816111c4565b811461134357600080fd5b50565b61134f816111d6565b811461135a57600080fd5b5056fea2646970667358221220a51720355a55ba89ea77410ff2c4278e030761e7d22e8ff2a6433217b8ef150564736f6c63430008000033a26469706673582212203beb9d5199febd6164ddedac09aa4b6f1a3c8234f81955e3f29424e5e04feaec64736f6c63430008000033",
  "immutableReferences": {},
  "source": "pragma solidity >=0.7.0 <0.8.11;\n\nimport \"./Fundraiser.sol\";\n\ncontract FundraiserFactory {\n  uint256 constant maxLimit = 20;\n\n  Fundraiser[] private xfundraisers;\n  event FundraiserCreated(Fundraiser indexed fundraiser, address indexed owner);\n\n   function fundraisersCount() public view returns(uint256) {\n       return xfundraisers.length;\n   }\n\n   function createFundraiser(\n        string memory name,\n        string memory url,\n        string memory imageURL,\n        string memory description,\n        address payable beneficiary\n    )\n        public\n    {\n        Fundraiser fundraiser = new Fundraiser(\n            name,\n            url,\n            imageURL,\n            description,\n            beneficiary,\n            msg.sender\n        );\n        xfundraisers.push(fundraiser);\n        emit FundraiserCreated(fundraiser, msg.sender);\n    }\n\n    function fundraisers(uint256 limit, uint256 offset) public view returns(Fundraiser[] memory coll) {\n        require(offset <= fundraisersCount(), \"offset out of bounds\");\n        uint256 size = fundraisersCount() - offset; \n\n        size = size < limit ? size : limit;\n        size = size < maxLimit ? size : maxLimit;\n        coll = new Fundraiser[](size);\n\n        for(uint256 i = 0; i < size; i++) {\n          coll[i] = xfundraisers[offset+i];\n        }\n\n        return coll;\n    }\n\n}",
  "sourcePath": "/Users/alecsgarza/learning/web3/hoscdev/fundraiser/contracts/FundraiserFactory.sol",
  "compiler": {
    "name": "solc",
    "version": "0.8.0+commit.c7dfd78e.Emscripten.clang"
  },
  "schemaVersion": "3.4.4",
  "updatedAt": "2022-02-16T19:47:19.816Z",
  "networkType": "ethereum",
  "devdoc": {
    "kind": "dev",
    "methods": {},
    "version": 1
  },
  "userdoc": {
    "kind": "user",
    "methods": {},
    "version": 1
  }
}